:100000000C943E000C9448000C9448000C9448005A
:100010000C9448000C9448000C9448000C94480040
:100020000C9448000C9448000C9448000C94480030
:100030000C9448000C9448000C9448000C94480020
:100040000C9448000C9448000C9448000C94480010
:100050000C9448000C9448000C9448000C94480000
:100060000C9448000C9448000C9448000C944800F0
:100070000C9448000C9448000C94480011241FBEB6
:10008000CFEFD8E0DEBFCDBF0E949A000C949C0059
:100090000C94000083E087B921E032E028B94FEFEB
:1000A00089E698E1415080409040E1F700C00000AF
:1000B00038B9EFEFF9E648E1E150F0404040E1F7B0
:1000C00000C0000082E390E028B9EFE1FEE4319740
:1000D000F1F700C0000038B9EFE1FEE43197F1F725
:1000E00000C00000019781F7D9CF83E08AB990E082
:1000F00080E042E050E022E031E04A9B0CC0EFE1BA
:10010000FEE43197F1F700C000004A9BF6CF00975C
:1001100079F43BB9F2CFEFE1FEE43197F1F700C09B
:1001200000001BB80196BA01681B790BCB01E5CF23
:0C0130002BB9E3CF0E947500F894FFCFBC
:00000001FF
