:100000000C943E000C9448000C9448000C9448005A
:100010000C9448000C9448000C9448000C94480040
:100020000C9448000C9448000C9448000C94480030
:100030000C9448000C9448000C9448000C94480020
:100040000C9448000C9448000C9448000C94480010
:100050000C9448000C9448000C9448000C94480000
:100060000C9448000C9448000C9448000C944800F0
:100070000C9448000C9448000C94480011241FBEB6
:10008000CFEFD8E0DEBFCDBF0E94A0000C94A2004D
:100090000C94000089B182FB882780F9089583E0E1
:1000A00087B921E032E028B94FEF89E698E1415065
:1000B00080409040E1F700C0000038B9EFEFF9E66A
:1000C00048E1E150F0404040E1F700C0000082E329
:1000D00090E028B9EFE1FEE43197F1F700C00000AD
:1000E00038B9EFE1FEE43197F1F700C00000019765
:1000F000D1F2EFCF83E08AB920E080E090E032E0F7
:1001000041E04A9B12C0EFE1FEE43197F1F700C0F5
:1001100000004A9BF6CF009711F44BB904C0813020
:10012000910509F43BB921E0ECCF1BB8222349F338
:10013000019620E08230910521F780E090E0E1CF48
:080140000E947A00F894FFCF41
:00000001FF
