:100000000C943E000C9448000C9448000C9448005A
:100010000C9448000C9448000C9448000C94480040
:100020000C9448000C9448000C9448000C94480030
:100030000C9448000C9448000C9448000C94480020
:100040000C9448000C9448000C9448000C94480010
:100050000C9448000C9448000C9448000C94480000
:100060000C9448000C9448000C9448000C944800F0
:100070000C9448000C9448000C94480011241FBEB6
:10008000CFEFD8E0DEBFCDBF0E94FF000C9401018E
:100090000C9400004A9B0BC08FE295E70197F1F7A3
:1000A00000C0000089B182FB882780F9089580E0B4
:1000B00008951098109A089582B182B9119A0895FE
:1000C0000E9459008FE097E20197F1F700C000000D
:1000D0000E945C008FE097E20197F1F700C00000FA
:1000E0000895FC01808191818130910541F0823039
:1000F000910551F0892B51F481E090E002C082E03B
:1001000090E0918380830895118210820895FC010C
:10011000808191818130910539F08230910531F0F3
:10012000892B31F40C9459000C945C000C94600001
:10013000089583E087B921E032E028B94FEF89E6DE
:1001400098E1415080409040E1F700C0000038B98C
:10015000EFEFF9E648E1E150F0404040E1F700C040
:10016000000082E390E028B9EFE1FEE43197F1F777
:1001700000C0000038B9EFE1FEE43197F1F700C0AC
:1001800000000197D1F2EFCF83E08AB910E0C0E020
:10019000D0E002E0FF24F3940E944A00882329F073
:1001A000209751F4FBB811E0F7CF1BB81123A1F34E
:1001B00081E0C82710E0F0CF0BB911E0C1E0D0E03A
:1001C000EBCFCF93DF9300D0CDB7DEB781B11A82EA
:1001D0001982CE0101960E9487000E944A0088235E
:1001E000C1F30E944A00882329F0CE0101960E94A3
:1001F0008700F7CFCE0101960E947100EACF0E94DE
:06020000C400F894FFCFDA
:00000001FF
