:100000000C943E000C9448000C9448000C9448005A
:100010000C9448000C9448000C9448000C94480040
:100020000C9448000C9448000C9448000C94480030
:100030000C9448000C9448000C9448000C94480020
:100040000C9448000C9448000C9448000C94480010
:100050000C9448000C9448000C9448000C94480000
:100060000C9448000C9448000C9448000C944800F0
:100070000C9448000C9448000C94480011241FBEB6
:10008000CFEFD8E0DEBFCDBF0E9475000C948B008F
:100090000C9400004A9B0BC08FE295E70197F1F7A3
:1000A00000C0000089B182FB882780F9089580E0B4
:1000B00008958BB18BB9599A08951BB80895FC0126
:1000C0002081223071F410820E945900FFEF23ED4D
:1000D00080E3F15020408040E1F700C000001BB8F1
:1000E00008952F5FFC0120830895CF93DF931F9223
:1000F000CDB7DEB783E08AB9198210E00E944A00CA
:10010000882311F011E0FACF1123C1F3CE0101963B
:0A0110000E945F00F2CFF894FFCFC9
:00000001FF
